:0A0000000C94B2000C9400000C9464
:10000A0000000C9400000C9400000C9400000C9466
:10001A0000000C9400000C9400000C9400000C9456
:10002A0000000C9400000C9400000C9400000C9446
:10003A0000000C9400000C9400000C9400000C9436
:10004A0000000C9400000C94000000000053454C82
:10005A00414D415420444154414E47002020202024
:10006A0020204449202020202020002020415941DE
:10007A004D2047455052454B202000202020204942
:10008A0042554E45482020202000204F50454E2002
:10009A003234482F372F313200205345444941200A
:1000AA0047455052454B203A002020202020424903
:1000BA004153412020202020002020205355504524
:1000CA005220484F54202020002020202043484519
:1000DA004553452020202020002020204D4F4A4112
:1000EA0052454C4C412020200020202020205449F9
:1000FA0052414D20202020200020205445524959A9
:10010A0041515545454E202000202050454D45532C
:10011A00414E414E203A2020002020204C414E479B
:10012A0053554E4720202020002020202020474FD2
:10013A004A454B202020202000202020303831330F
:10014A003258585820202020000080C001000500A5
:10015A0054000200600154010000F894EE27ECBB41
:10016A00F1E0FBBFEBBFE5BFF8E1F1BDE1BD8DE01A
:10017A00A2E0BB27ED938A95E9F780E094E0A0E638
:10018A00ED930197E9F7E6E5F1E0859195910097FE
:10019A0061F0A591B59105901590BF01F001059008
:1001AA000D920197E1F7FB01F0CFEFE5EDBFE4E037
:1001BA00EEBFC0E6D1E00C94E200EFEFEBBBEABB86
:1001CA00E0E0E8BBE7BBE5BBE4BBE2BBE1BBE3BF06
:1001DA00E2BFECBFEFBDEEBDEDBDECBDE7BDE6BDD8
:1001EA00EBBDEABDE9BDE8BDE2BDE5BDE4BDE3BDE9
:1001FA00E5BFE4BFE9BFEAB9E0E8E8B9E0E0E0BF9B
:10020A00E6B9EDB9E6BFA0E1B0D07DD0E0E0D8D044
:10021A00A6E5B0E097D05524EFE0E51510F40C946C
:10022A00590171D0E1E0CCD0A7E5B0E0CCD0A6E688
:10023A00B0E0D2D0C5D0A5E7B0E0C5D0A5E8B0E01F
:10024A00D2D0A5E8B0E0C8D0D5D0A4E9B0E0CBD0F0
:10025A00A3EAB0E077D0AEE1D0D0A6E5B0E0D2D044
:10026A00A3EBB0E0CFD0A3ECB0E0CCD0A3EDB0E0EC
:10027A00C9D0A3EEB0E0C6D0A3EFB0E0C3D0A3E0EC
:10028A00B1E0C3D0E1E09CD0A3E1B1E05BD0ACE344
:10029A00B4D0A3E2B1E0B6D0A3E3B1E0B3D0A3E413
:1002AA00B1E0B3D05394B8CFB6CFFFCFAA93EBB394
:1002BA00EF70AE2FE881E07FEA2BEBBB88E08A95EE
:1002CA00F1F7DA9A84E18A95F1F7DA9884E18A9566
:1002DA00F1F774C0AA93A881E9DFE881E295E8837F
:1002EA00A881E4DF88EC8A95F1F768C0AA93E881CF
:1002FA00F0E0E05AFE4FE081A981AE0FEBDF4980C2
:10030A00788022960895A2E085D0ACE0E3DFA1E0F0
:10031A0081D0E0E07E2E4E2E0895AA93A881AA30BD
:10032A0011F0461448F0E0E0EA937394A72DDEDF5B
:10033A00A881AA3009F442C04394D89AA881CADF96
:10034A00D8983CC0BA93AA931A93E981FA81319654
:10035A00E983FA833197E4911E2FE03019F0A12F37
:10036A00DCDFF3CF188123960895AA93EAB3E06FEE
:10037A00EABBD29AD09AD19ADA98D898D998688052
:10038A00E881E058E0936201E881E054E093630178
:10039A00A4E1B0E00E941B0242D041D040D0A0E2CA
:1003AA0085DF8CE291E00197F1F7A8E293DFA4E000
:1003BA0091DFA5E88FDFA6E08DDFA5DF21960895FE
:1003CA00EA93A0E093CFBEDFA6E4B0E00E941B024E
:1003DA00E1E0EA93A1E08ACFB5DFA2E3B0E00E94B0
:1003EA001B02E1E00895AEDFACE3B0E00E941B021D
:1003FA00E1E0E6CFEA93A1E079CFB0E00E941B02E8
:10040A00E1E0F8CF9FDFA8E2F8CF9CDFA8E2B0E0F6
:10041A000C941B025FDFA3E0B0E00C941B02A0E384
:10042A0045DF8CE291E00197F1F70895109639F0D3
:10043A0088EB9BE00197F1F7A8951197C9F7089502
:00000001FF
