:100000001FC0FECFFDCFFCCFFBCFFACFF9CFF8CF8B
:10001000F7CFF6CFF5CFF4CFF3CFF2CFF1CFF0CFCC
:10002000EFCFEECFEDCF00004079243019120278E7
:1000300000180200040026000A00600128000000E9
:10004000F894EE27ECBBF1E0FBBFEBBFE5BF8DE022
:10005000A2E0BB27ED938A95E9F780E094E0A0E663
:10006000ED930197E9F7E2E3F0E085919591009730
:1000700061F0A591B59105901590BF01F001059033
:100080000D920197E1F7FB01F0CFEFE5EDBFE4E062
:10009000EEBFC0E6D1E000C0E0E0E7BBE8BBEFE7C1
:1000A000E4BBE5BBEFEFE1BBE2BBE0E0E3BFE2BFF7
:1000B000EFBDEEBDEDBDECBDE7BDE6BDEBBDEABD00
:1000C000E9BDE8BDE2BDE5BDE4BDE3BDE9BFE5BF17
:1000D000EAB9E0E8E8B9E0E0E0BFE6B9EDB9E6BFCB
:1000E000E6B3E170E13029F4F20131962F01319746
:1000F00008C0E6B3E270E23039F4F20131972F0123
:100100003196A4E6B0E022D0D201EAE0F0E03FD0A0
:100110003F01D201EAE0F0E03FD04F01E1E0E5BB72
:10012000A0E6B1E0A60DB71DEC91E2BBA4E6B0E0FD
:100130000DD0E2E0E5BBA0E6B1E0A80DB91DEC9161
:10014000E2BBA8ECB0E002D0CBCFFFCF109639F0E5
:1001500080ED97E00197F1F7A8951197C9F70895F9
:10016000F195E195F04008950024112490E1AA0F43
:10017000BB1F001C111C0E1A1F0A18F40E0E1F1EA6
:1001800001C0A1609A9599F7FD01D001089512D0A0
:10019000EBDF0EF4E5DF0895E894B7FF04C0A09507
:1001A000B09511966894F7FDDBDFDEDFFD010EF4FC
:1001B000D7DF0895E894F7FF02C0D2DF6894B7FF55
:1001C00006C0A095B095119600F8039400FA089522
:00000001FF
