:1000000014C0FECFFDCFFCCFFBCFFACFF9CFF8CF96
:10001000F7CFF6CFF5CFF4CFF3CFF2CFF1CFF0CFCC
:10002000EFCFEECFEDCFECCFEBCFF894EE27ECBBDC
:10003000F1E0FBBFEBBFE5BF8DE0A2E0BB27ED9396
:100040008A95E9F780E092E0A0E6ED930197E9F761
:10005000EFE5EDBFE2E0EEBFC0EED0E000C0EFEFB5
:10006000EABBEBBBE7BBE8BBE4BBE5BBE1BBE2BB88
:10007000E0E0E3BFE2BFECBFEFBDEEBDEDBDECBD28
:10008000E7BDE6BDEBBDEABDE9BDE8BDE2BDE5BD4E
:10009000E4BDE3BDE9BFE5BFE4BFEAB9E0E8E8B924
:1000A000E0E0E0BFE6B9EDB9E6BFE9E4EBBBE2BBF7
:1000B000ECE1E8BBE1E16ED0E9E0EBBBE1E4E2BBFF
:1000C000E4E1E8BBE1E666D0E1E7EBBBE9E3E2BBF4
:1000D000ECE0E8BBE1E25ED0E1E3EBBBE2BBE4E0F5
:1000E000E8BBE3E457D0E1E5EBBBE9E2E2BBE2E0E9
:1000F000E8BBE3E04FD0E1E1EBBBE1E2E2BBE9E4E6
:10010000E8BBE4E647D0E1E6EBBBE9E1E2BBE1E4D2
:10011000E8BBE4E23FD0E1E2EBBBE1E1E2BBE9E3D3
:10012000E8BBE4E437D0E3E4EBBBEBE0E2BBE1E3C4
:10013000E8BBE4E02FD0E3E0EBBBE2BBE9E2E8BBE5
:10014000E2E028D0E4E6EBBBECE1E2BBE1E2E8BBB5
:10015000E9E420D0E4E2EBBBE4E1E2BBE9E1E8BBA7
:10016000E9E018D0E4E4EBBBECE0E2BBE1E1E8BBA2
:10017000E1E710D0E4E0EBBBE2BBEBE0E8BBE1E39E
:1001800009D0E2E0EBBBE2BBE3E0E8BBE1E502D093
:100190008CCFFFCFE5BBA4E6B0E000C0109639F0ED
:1001A000A89580ED97E00197F1F71197C9F70895A9
:00000001FF
