:080000000C942F000C94000089
:100008000C9400000C9400000C9400000C94000068
:100018000C9400000C9400000C9400000C94000058
:100028000C9400000C9400000C9400000C94000048
:100038000C9400000C9400000C9400000C94000038
:100048000C9400000C9400000C94000000000100C7
:10005800050054000000F894EE27ECBBF1E0FBBF6C
:10006800EBBFE5BFF8E1F1BDE1BD8DE0A2E0BB2744
:10007800ED938A95E9F780E098E0A0E6ED93019783
:10008800E9F7E6E5F0E085919591009761F0A59193
:10009800B59105901590BF01F00105900D9201975B
:1000A800E1F7FB01F0CFEFE5EDBFE8E0EEBFC0E61A
:1000B800D2E00C945F00EFEFEBBBE0E0EABBE8BBFB
:1000C800E7BBE5BBE4BBE2BBEFEFE1BBE0E0E3BFCE
:1000D800E2BFECBFEFBDEEBDEDBDECBDE7BDE6BDDB
:1000E800EBBDEABDE9BDE8BDE2BDE5BDE4BDE3BDEC
:1000F800E5BFE4BFE9BFEAB9E0E8E8B9E0E0E0BF9E
:10010800E6B9EDB9E6BFA0E0C899A1E0A03019F4BE
:10011800E0E0E51509F004C0E1E05E2E909A26C003
:10012800A0E0C999A1E0A03019F4E0E0E51509F0D4
:1001380004C0E1E05E2E919A19C0A0E0CA99A1E03E
:10014800A03019F4E0E0E51509F004C0E1E05E2E06
:10015800929A0CC0A0E0CB99A1E0A03019F4E1E09C
:10016800E51509F003C05524E0E0E2BBCCCFFFCF92
:00000001FF
