S01700004763634170706C69636174696F6E312E737265635B
S11300000C942A000C9434000C9434000C943400A6
S11300100C9434000C9434000C9434000C9434008C
S11300200C9434000C9434000C9434000C9434007C
S11300300C9434000C9434000C9434000C9434006C
S11300400C9434000C9434000C9434000C9434005C
S11300500C94340011241FBECFE5D8E0DEBFCDBF21
S11300600E9436000C946D000C94000081E084BB67
S113007015BA85BBEFECF7E03197F1F700C000004B
S113008015BAFFEF23ED30E3F15020403040E1F7A3
S113009000C0000085BBE7EBFBE03197F1F700C03F
S11300A0000015BAFFEF23ED30E3F150204030405B
S11300B0E1F700C0000085BBEFE9FFE03197F1F7FD
S11300C000C0000015BAFFEF23ED30E3F1502040EB
S11100D03040E1F700C00000CCCFF894FFCF21
S9030000FC
