:020000000C945E
:100002004F000C947F000C9496000C9400000C940A
:1000120000000C9400000C9400000C9400000C945E
:1000220000000C9400000C9400000C9400000C944E
:1000320000000C9400000C9400000C9400000C943E
:1000420000000C9400000C9400000C9400000C942E
:1000520000001027E80364000A00010000100001FC
:100062001000010054696D657200256925693A2501
:100072006925693A25692569000001002D4E414E26
:1000820000494E46000080C0060060016600010083
:100092007C017C000200800188000000F894EE27B9
:1000A200ECBBF1E0FBBFEBBFE5BFF8E1F1BDE1BDA9
:1000B2008DE0A2E0BB27ED938A95E9F780E094E01A
:1000C200A0E6ED930197E9F7EAE8F0E085919591D2
:1000D200009761F0A591B59105901590BF01F001CF
:1000E20005900D920197E1F7FB01F0CFEFE5EDBF2F
:1000F200E4E0EEBFC0E6D1E00C94A100EA93FA93EB
:10010200EFB7EA93E0917801F09179013196E093AB
:100112007801F0937901E0E0E0937A01E0937B01CA
:10012200E991EFBFF991E9911895EA93FA93E1E029
:10013200F0E0E0937A01F0937B01F991E99118954F
:10014200E0E0EBBBEABBE8BBE7BBE5BBEFEFE4BB40
:10015200E0E0E2BBE1BBE3BFE2BFECBFEFBDEEBD5F
:10016200EDBDECBDE7BDE6BDEBBDEABDE9BDE8BD59
:10017200E2BDE5BDE4BDE3BDEBB7E06CEBBFEAE099
:10018200E5BFE0E0E4BFE0ECEABFE0E0E9BFEAB9E6
:10019200E0E8E8B9E0E0E0BFE6B9EDB9E6BFA8E023
:1001A2000E949C037894A4E60E94E303E0917A0102
:1001B200F0917B013097F1F4E0917801F0917901AF
:1001C200309711F4220115C0A0917801B091790104
:1001D200119721F4F20131962F010BC0A091780101
:1001E200B0917901129729F4E0E0E0937801E0936D
:1001F200790115C0A0917A01B0917B01119779F430
:10020200442455246624772488249924AA24BB24D0
:10021200CC24DD24E0E0E0937601E0937701EAE08C
:10022200F0E0E415F50529F444245524F301319650
:100232003F01E6E0F0E0E615F70529F466247724AD
:10024200F40131964F01EAE0F0E0E815F90529F4EE
:1002520088249924F50131965F01E6E0F0E0EA1581
:10026200FB0529F4AA24BB24F60131966F01EAE0CA
:10027200F0E0EC15FD0559F4CC24DD24E091760183
:10028200F09177013196E0937601F0937701E0E007
:10029200EA93A0E00E944803A0E6B1E00E948B032B
:1002A200E6E6F1E0FA93EA93ECE6F0E0FA93EA93F9
:1002B200E0917601F09177010E94E603F6010E9437
:1002C200E603F5010E94E603F4010E94E603F3014E
:1002D2000E94E603F2010E94E60388E10E94F40212
:1002E2006C96E0E0EA93A1E00E944803A6E6B1E042
:1002F2000E948B0358CFFFCFBA93AA931A930A9303
:10030200AA81BB8112960E943604309759F1AA81C4
:10031200BB8114960E9436048F01309761F002303F
:10032200E0E01E07F0F0F80131978F01AA81BB814E
:100332001496ED93FC93AA81BB811296ED91FD91E7
:100342003196FE93EE933197AC81A083AA81BB8153
:100352000E943604FF232AF0ED91FD913196FE931F
:10036200EE9306C0AA81BB81EFEFFFEFED93FC9302
:100372001981088125960895BA93AA9326970E9417
:10038200430410E0AC85BD85E0E0F0E0ED93FC9322
:10039200EA89FB893196EA8BFB8B3197E4912E2F08
:1003A200E03011F40C94EC02E12FE03039F4253204
:1003B20011F411E002C00E94EB030CC1E130A9F478
:1003C200253219F40E94EB0304C112E040E000E080
:1003D2002D3211F401E0FEC02B3211F44BE2FAC0CF
:1003E200203211F440E2F6C002C0E23039F450E0AB
:1003F20013E0203311F40068EDC004C0E33011F0C3
:100402000C94EB02203310F02A3308F007C0AAE064
:100412005A9F502DE22FE0535E0FDCC0E22FE336ED
:1004220049F40E94F203E889F989A481AA930E94FF
:10043200F803CFC0E33741F40E94F2030E94FE03A7
:100442000E94CA031E2F0AC0E03761F40E94F20321
:100452000E94FE030E94D6031E2F086002600F77DF
:1004620030E035C0E43611F0E93611F4046002C020
:10047200E53731F4E4E5F0E0EE83FF8315E00DC0EB
:10048200E83511F4086004C0E83711F00C94EA0270
:10049200EEE5F0E0EE83FF8314E002FF14C00E9459
:1004A200F2030E940804AB85AA233AF4EA85FB858D
:1004B2000E942D04EA87FB874DE2403011F01F5F56
:1004C20001C00B7F04C00E94F2030E94080400FDD9
:1004D20011C0151778F407FF08C002FF04C00B7F94
:1004E200242F115001C020E301C020E20E94EB033F
:1004F2005150EFCF312F01FF17C03030A1F003FF71
:1005020006C0EE81FF812591EE83FF8305C0AE8197
:10051200BF812D91AE83BF830E94EB03503009F05F
:1005220051503150EACF4BC020E3EE81FF810E944F
:100532003A04E887F987EE81FF813296EE83FF83E2
:10054200E885F985AA85BB85AE17BF0750F02F5FF6
:10055200A885B985EA85FB85EA1BFB0BEA87FB8741
:10056200EFCF2A3328F003FF02C0295F01C0295DC3
:1005720004FD1AC0213320F4A885B985119709F426
:1005820009C0531710F000FF01C013C020E207FF9B
:100592000BC020E3006102FF07C00B7F4A930E9459
:1005A200F803503009F051500E94EB03503009F02B
:1005B20051503150A885B985129708F0B5CF00FF88
:1005C20008C0503031F05150E0E2EA930E94F80343
:1005D200F8CF10E0DDCEAC85BD850E9436040E94C6
:1005E2004A0464960895FF92F82E26970E944504C5
:1005F2000E941004309719F4EFEFFFEF23C0DE01E1
:1006020016960E9429048D010E941004EE83FF8336
:10061200E0E0E887E987DE011A960E9429040E9439
:100622003604FA93EA931A930A93EDE7F1E0FA9308
:10063200EA93DE011A96A0DE9F01AE81BF81E0E05F
:10064200EC93F9010E944C042A96FF900895AA9314
:10065200E5B3EF70AE2FE881E07FEA2BE5BB85E0E2
:100662008A95F1F7AA9A8DE08A95F1F7AA988DE01A
:100672008A95F1F78CC0AA93A881E9DFE881E29517
:10068200E883A881E4DF85E88A95F1F780C0AA9320
:10069200E881F0E0E058FE4FE081A981AE0FEBDF88
:1006A200E981E0938401E881E0938501229608952F
:1006B200A2E0E1DFA3E00E94E303ACE0DCDFA1E023
:1006C200DADFA3E00E94E303E0E0E0938501E09338
:1006D20084010895AA93A881AA3031F0E09186019D
:1006E200A0918401AE1760F0E0E0EA93A091850149
:1006F200AF5FA0938501CBDFA881AA3009F447C080
:10070200E0918401EF5FE0938401A89AA881B3DFAE
:10071200A8983DC0BA93AA931A93A981BA81ED9180
:10072200A983BA831E2FE03019F0A12FD3DFF5CFB2
:10073200188123960895AA93E4B3E06FE4BBA29ACA
:10074200A09AA19AAA98A898A998E881E09386010C
:10075200E058E0938201E881E054E0938301A4E150
:100762000E94E3030E9417040E9417040E941704C8
:10077200A0E26DDF88EC90E00197F1F7A8E27BDF61
:10078200A4E079DFA5E877DFA6E075DF91DF2196A7
:100792000895BA93AA93A991B991EE27FF276D9173
:1007A200662311F03196FBCF0895BA93AA93AA2734
:1007B200BB27E991F9910590002011F01196FBCF2A
:1007C200FD010895B0E00C941F040E9431040E94C0
:1007D2003E0408952A93AD85BE85EF85F889099573
:1007E2000895E889F9893497E88BF98B0895AD85E6
:1007F200BE85EF85F88909950895A889B989149667
:100802000E943604EE83FF83AE81BF810895A889DA
:10081200B98914960E943604EA87FB870895DE019F
:100822001C960E9429040E9436040895A0E30E94A7
:10083200280388EC90E00197F1F70895109639F0BB
:1008420080ED97E00197F1F7A8951197C9F7089500
:100852000024AF0DB01D0895F195E195F040089583
:100862006F2F660F660B762F0895ED91FC9111970D
:1008720008950590F491E02D08957A936A93FA937E
:10088200EA9308955A934A933A932A931A930A93AE
:1008920008955D814C813B812A81198108810895E7
:00000001FF
