:0A0000000C9451000C9481000C9444
:10000A0098000C9400000C9400000C9400000C94CE
:10001A0000000C9400000C9400000C9400000C9456
:10002A0000000C9400000C9400000C9400000C9446
:10003A0000000C9400000C9400000C9400000C9436
:10004A0000000C9400000C9400001027E8036400E0
:10005A000A000100001000011000010073746F70A3
:10006A00770025692569203A2025692569203A20E3
:10007A0025692569200001002D4E414E00494E4652
:10008A00000080C006006001660001007C0180005B
:10009A00020080018C000000F894EE27ECBBF1E02E
:1000AA00FBBFEBBFE5BFF8E1F1BDE1BD8DE0A2E02A
:1000BA00BB27ED938A95E9F780E094E0A0E6ED93FB
:1000CA000197E9F7EEE8F0E085919591009761F0E4
:1000DA00A591B59105901590BF01F00105900D927B
:1000EA000197E1F7FB01F0CFEFE5EDBFE4E0EEBFEA
:1000FA00C0E6D1E00C94A300EA93FA93EFB7EA932F
:10010A00E0917801F09179013196E0937801F093CA
:10011A007901E0E0E0937A01E0937B01E991EFBF96
:10012A00F991E9911895EA93FA93E1E0F0E0E09306
:10013A007A01F0937B01F991E9911895E0E0EBBB24
:10014A00EABBE8BBE7BBE5BBEFEFE4BBE0E0E2BB41
:10015A00E1BBE3BFE2BFECBFEFBDEEBDEDBDECBD61
:10016A00E7BDE6BDEBBDEABDE9BDE8BDE2BDE5BD63
:10017A00E4BDE3BDEBB7E06CEBBFEAE0E5BFE0E06E
:10018A00E4BFE0ECEABFE0E0E9BFEAB9E0E8E8B9D9
:10019A00E0E0E0BFE6B9EDB9E6BFA0E10E94940352
:1001AA007894A4E0B0E00E941B04E0917A01F091F7
:1001BA007B013097F9F42201E0917801F0917901FD
:1001CA00309711F4220115C0A0917801B0917901FC
:1001DA00119721F4F20131962F010BC0A0917801F9
:1001EA00B0917901129729F4E0E0E0937801E09365
:1001FA00790115C0A0917A01B0917B01119779F428
:10020A00442455246624772488249924AA24BB24C8
:10021A00CC24DD24E0E0E0937601E0937701EAE084
:10022A00F0E0E415F50529F444245524F301319648
:10023A003F01E6E0F0E0E615F70529F466247724A5
:10024A00F40131964F0188249924F50131965F0112
:10025A00E6E0F0E0EA15FB0529F4AA24BB24F6013E
:10026A0031966F01EAE0F0E0EC15FD0559F4CC2473
:10027A00DD24E0917601F09177013196E0937601E1
:10028A00F0937701E0E0EA93A0E00E944403A0E63D
:10029A00B1E00E948303E6E6F1E0FA93EA93ECE622
:1002AA00F0E0FA93EA93E0917601F09177010E94E7
:1002BA00DC03F6010E94DC03F5010E94DC03F40171
:1002CA000E94DC03F3010E94DC03F2010E94DC03BA
:1002DA0088E10E94F0026C96E0E0EA93A1E00E94B5
:1002EA004403A6E6B1E00E9483035BCFFFCFBA9333
:1002FA00AA931A930A93AA81BB8112960E94320486
:10030A00309759F1AA81BB8114960E9432048F0159
:10031A00309761F00230E0E01E0798F0F80131975B
:10032A008F01AA81BB811496ED93FC93AA81BB81AC
:10033A001296ED91FD913196FE93EE933197AC8131
:10034A00A083AA81BB810E943204FF232AF0ED9187
:10035A00FD913196FE93EE9306C0AA81BB81EFEF21
:10036A00FFEFED93FC931981088125960895BA93BE
:10037A00AA9326970E943F0410E0AC85BD85E0E071
:10038A00F0E0ED93FC93EA89FB893196EA8BFB8BCB
:10039A003197E4912E2FE03009F415C1E12FE030B6
:1003AA0039F4253211F411E002C00E94E1030AC1B6
:1003BA00E130A9F4253219F40E94E10302C112E0E6
:1003CA0040E000E02D3211F401E0FCC02B3211F4C0
:1003DA004BE2F8C0203211F440E2F4C002C0E2302D
:1003EA0039F450E013E0203311F40068EBC003C085
:1003FA00E33009F0E7C0203310F02A3308F007C0D1
:10040A00AAE05A9F502DE22FE0535E0FDBC0E22F85
:10041A00E33649F40E94E803E889F989A481AA939A
:10042A000E94EE03CEC0E33741F40E94E8030E9423
:10043A00F4030E94C3031E2F0AC0E03761F40E942E
:10044A00E8030E94F4030E94CF031E2F0860026093
:10045A000F7730E034C0E43611F0E93611F4046065
:10046A0002C0E53731F4E4E5F0E0EE83FF8315E0FE
:10047A000CC0E83511F4086003C0E83709F0A1C0E0
:10048A00EEE5F0E0EE83FF8314E002FF14C00E9461
:10049A00E8030E94FE03AB85AA233AF4EA85FB85AA
:1004AA000E942904EA87FB874DE2403011F01F5F62
:1004BA0001C00B7F04C00E94E8030E94FE0300FDF6
:1004CA0011C0151778F407FF08C002FF04C00B7F9C
:1004DA00242F115001C020E301C020E20E94E10351
:1004EA005150EFCF312F01FF17C03030A1F003FF79
:1004FA0006C0EE81FF812591EE83FF8305C0AE81A0
:10050A00BF812D91AE83BF830E94E103503009F071
:10051A0051503150EACF4BC020E3EE81FF810E9457
:10052A003604E887F987EE81FF813296EE83FF83EE
:10053A00E885F985AA85BB85AE17BF0750F02F5FFE
:10054A00A885B985EA85FB85EA1BFB0BEA87FB8749
:10055A00EFCF2A3328F003FF02C0295F01C0295DCB
:10056A0004FD1AC0213320F4A885B985119709F42E
:10057A0009C0531710F000FF01C013C020E207FFA3
:10058A000BC020E3006102FF07C00B7F4A930E9461
:10059A00EE03503009F051500E94E103503009F047
:1005AA0051503150A885B985129708F0B5CF00FF90
:1005BA0008C0503031F05150E0E2EA930E94EE0355
:1005CA00F8CF10E0E0CEAC85BD850E9432040E94CF
:1005DA00460464960895FF92F82E26970E944104D5
:1005EA000E940604309719F4EFEFFFEF23C0DE01F3
:1005FA0016960E9425048D010E940604EE83FF834D
:10060A00E0E0E887E987DE011A960E9425040E9445
:10061A003204FA93EA931A930A93ECE7F1E0FA9315
:10062A00EA93DE011A96A3DE9F01AE81BF81E0E064
:10063A00EC93F9010E9448042A96FF900895AA9320
:10064A00E5B3EF70AE2FE881E07FEA2BE5BB8DE0E2
:10065A008A95F1F7AA9A8DE08A95F1F7AA988DE022
:10066A008A95F1F789C0AA93A881E9DFE881E29522
:10067A00E883A881E4DF85E88A95F1F77DC0AA932B
:10068A00E881F0E0E058FE4FE081A981AE0FEBDF90
:10069A00E981E0938401E881E09385012296089537
:1006AA00A2E00E940D04ACE0DEDFA1E00E940D048E
:1006BA00E0E0E0938501E09384010895AA93A8817C
:1006CA00AA3031F0E0918601A0918401AE1760F062
:1006DA00E0E0EA93A0918501AF5FA0938501CFDFA7
:1006EA00A881AA3009F448C0E0918401EF5FE09341
:1006FA008401A89AA881B7DFA8983EC0BA93AA93A2
:10070A001A93A981BA81ED91A983BA831E2FE03089
:10071A0019F0A12FD3DFF5CF188123960895AA9354
:10072A00E4B3E06FE4BBA29AA09AA19AAA98A89807
:10073A00A998E881E0938601E058E0938201E88174
:10074A00E054E0938301A4E1B0E00E941B040E94FC
:10075A0013040E9413040E941304A0E270DF88ECC1
:10076A0090E00197F1F7A8E27EDFA4E07CDFA5E83C
:10077A007ADFA6E078DF94DF21960895BA93AA93E8
:10078A00A991B991EE27FF276D91662311F0319651
:10079A00FBCF0895BA93AA93AA27BB27E991F991A7
:1007AA000590002011F01196FBCFFD0108950E94DB
:1007BA002D040E943A0408952A93AD85BE85EF85DB
:1007CA00F88909950895E889F9893497E88BF98BAE
:1007DA000895AD85BE85EF85F88909950895A8899C
:1007EA00B98914960E943204EE83FF83AE81BF81D9
:1007FA000895A889B98914960E943204EA87FB876A
:10080A000895DE011C960E9425040E943204089570
:10081A000E943803A3E0B0E00C941B04A0E30E94FA
:10082A00240388EC90E00197F1F70895109639F0C7
:10083A0080ED97E00197F1F7A8951197C9F7089508
:10084A000024AF0DB01D0895F195E195F04008958B
:10085A006F2F660F660B762F0895ED91FC91119715
:10086A0008950590F491E02D08957A936A93FA9386
:10087A00EA9308955A934A933A932A931A930A93B6
:10088A0008955D814C813B812A81198108810895EF
:00000001FF
