:1000000031C0FECFFDCFFCCFFBCFFACFF9CFF8CF79
:10001000F7CFF6CFF5CFF4CFF3CFF2CFF1CFF0CFCC
:10002000EFCFEECFEDCFECCFEBCF1027E80364009E
:100030000A000100001000011000010014002564F6
:10004000002F002A002D002B00256420003D2025D4
:100050006420000080C0020004003C000200030194
:1000600054000000F894EE27ECBBF1E0FBBFEBBFBF
:10007000E5BF8DE0A2E0BB27ED938A95E9F780E02C
:1000800092E0A0E6ED930197E9F7E6E5F0E08591CF
:100090009591009761F0A591B59105901590BF01DC
:1000A000F00105900D920197E1F7FB01F0CFEFE52C
:1000B000EDBFE2E0EEBFC0EED0E062C0EEEFE8BB25
:1000C000B79903C053D32F0159C0B69904C0E9E0D2
:1000D000F0E02F0153C0B59904C0E8E0F0E02F0133
:1000E0004DC0B49904C0E7E0F0E02F0147C0EDEF48
:1000F000E8BBB79904C0EBE0F0E02F013FC0B69930
:1001000004C0E6E0F0E02F0139C0B59904C0E5E095
:10011000F0E02F0133C0B49903C02BD32F012EC0C0
:10012000EBEFE8BBB79904C0ECE0F0E02F0126C08C
:10013000B69903C021D32F0121C0B59903C01FD3A5
:100140002F011CC0B49903C01DD32F0117C0E7EFC6
:10015000E8BBB79904C0EDE0F0E02F010FC0B699FD
:1001600003C013D32F010AC0B59903C044245524FA
:1001700005C0B49903C0EFE0F0E02F01E42D08952D
:10018000E0EFE8BBEFE0E7BBA0E1ACD2062C07282C
:10019000A1F4FED24E165F0674F45201E0E0EA9339
:1001A000A0E03AD2F9D2EEE3F0E0FBD2F501FCD2C6
:1001B000E9D23F0102C066247724E4D2FDD219F5CA
:1001C000E7D2FDD229F4D5D2FDD2E1E4F0E0FCD2B1
:1001D000EBE0F0E0F4D229F4CFD2F4D2E3E4F0E0A3
:1001E000F3D2ECE0F0E0EBD229F4C9D2EBD2E5E4B3
:1001F000F0E0EAD2EDE0F0E0E2D229F4C3D2E2D2BC
:10020000E7E4F0E0E1D2BBD2D7D279F4C1D24E1606
:100210005F064CF46201C0D2E9E4F0E0C2D2F6011C
:10022000C3D2AAD201C0ABD23F01A6D2C5D2C1F57A
:10023000A9D2D4D259F4F601EA0DFB1DD2D221F491
:10024000ABD2D8D296D201C097D23F0198D2C6D2B3
:1002500059F4F501EC19FD09C4D221F49DD2CAD29A
:1002600088D201C089D23F0187D2B8D259F4F601B1
:10027000D50118D3B6D221F48FD2BCD27AD201C024
:100280007BD23F0176D2AAD259F4F601D50122D30E
:10029000A8D221F481D2AED26CD201C06DD23F017E
:1002A00068D28AD269F40ADF4E2E5524EFE0F0E0DE
:1002B00086D221F4C3D16624772402C05AD23F01EA
:1002C00065CFFFCF9FD22AD3A0D2129616D33097F4
:1002D000F1F09BD29DD28F01309761F00230E0E0C7
:1002E0001E0770F0F80131978F01AA81BB81149627
:1002F000ED93FC938AD212968ED23197AC81A08373
:1003000084D2FBD2FF2312F080D285D205C07DD2E9
:10031000EFEFFFEFED93FC9308D32596089572D28B
:100320002697F8D210E0AC85BD85E0E0F0E0ED93D3
:10033000FC93EA89FB893196EA8BFB8B3197E49138
:100340002E2FE03009F4FEC0E12FE03031F42532E9
:1003500011F411E001C065D2F4C0E130A1F42532FE
:1003600011F45FD2EDC012E040E000E02D3211F454
:1003700001E0E7C02B3211F44BE2E3C0203211F46C
:1003800040E2DFC002C0E23039F450E013E0203335
:1003900011F40068D6C003C0E33009F0D2C02033A6
:1003A00010F02A3308F007C0AAE05A9F502DE22F20
:1003B000E0535E0FC6C0E22FE33639F439D23BD2A8
:1003C00037D2A481AA933BD2BBC0E33731F43DD2EC
:1003D0003ED240D2B4D11E2F08C0E03751F435D2FE
:1003E00036D238D2B7D11E2F086002600F7730E0C6
:1003F0002EC0E43611F0E93611F4046002C0E5378E
:1004000029F4EAE2F0E02BD215E00BC0E83511F454
:10041000086003C0E83709F093C0E4E3F0E01FD2BE
:1004200014E002FF11C011D212D21CD2AB85AA2354
:100430002AF4EA85FB8525D215D24DE2403011F031
:100440001F5F01C00B7F03C000D201D20BD200FDA1
:1004500010C0151770F407FF08C002FF04C00B7F1F
:10046000242F115001C020E301C020E2DAD1515005
:10047000F0CF312F01FF15C0303091F003FF05C0E0
:10048000EE81FF812591EBD105C0AE81BF812D9119
:10049000AE83BF83C6D1503009F051503150ECCFFC
:1004A00046C020E3EE81FF812CD2E887F987EE81F8
:1004B000FF813296D4D1E885F985AA85BB85AE1730
:1004C000BF0748F02F5FA885B985EA85FB85EA1B41
:1004D000FB0BC8D1F0CF2A3328F003FF02C0295FFD
:1004E00001C0295D04FD19C0213320F4A885B98518
:1004F000119709F409C0531710F000FF01C011C093
:1005000020E207FF0AC020E3006102FF06C00B7F64
:100510004A9395D1503009F0515083D1503009F0B1
:1005200051503150A885B985129708F0BACF00FF15
:1005300007C0503029F05150E0E2EA9380D1F9CF62
:1005400010E0F7CEAC85BD85D8D1EBD16496089587
:10055000FF92F82E2697E0D188D1309719F4EFEF6B
:10056000FFEF1CC0DE01169688D18D017ED177D1B8
:10057000E0E0E887E987DE011A967FD1BED111D18C
:100580001A930A93E2E6F1E00CD1DE011A96C7DE77
:100590009F01AE81BF81E0E0EC93F901C4D12A96BE
:1005A000FF900895FFE0FA95F1F70895A4B3AF70B6
:1005B000A4BBA99AA898F6DFAA9AF4DFA3B3AA98D5
:1005C000F1DFAA9AEFDFAA98A7FDF5CF0895A07FE3
:1005D000AB2BA5BBAA9AE6DFAA98E4DF0895AA93FD
:1005E000A998A4B3A76FA4BBB5B3BF70A881EFDF70
:1005F000A881A295ECDFA99AA0C0AA9AD3DFE3B3A1
:10060000AA98D0DFE07F0895CDDFF7DFAE2FF5DFCA
:10061000A998E295EA2B0895AA93C8DFE881F0E053
:10062000ED5FFE4FE081A981AE0FD9DFE981E09354
:100630000701E881E093080122960895B7DFA2E060
:10064000CEDFB4DFACE0CBDFB1DFA1E0C8DFE0E0BC
:10065000E0930801E09307010895AA93EF93FF93B5
:10066000A8816894AA3039F0E894E0910901A0913A
:100670000701AE1758F0E0910801EF5FE093080121
:10068000E0E0EA93A0910801C7DF4EF0E091070196
:10069000EF5FE09307018ADFA89AA881A0DFFF91AE
:1006A000EF914BC0AFD01A93A981BA81ED91A98384
:1006B000BA831E2FE03019F0A12FCFDFF5CF1881BC
:1006C00023960895AA27BB271197F1F70895AA93B7
:1006D000A998A4B3A76FA4BBB5B3BF70A88177DFF7
:1006E000A99A2BC0AA93AA98A898E881E093090137
:1006F000E058E0930501E881E054E0930601BAD0A8
:10070000B9D0B8D0DFDFA0E2E2DFDCDFA8E267DF4C
:10071000D9DFA4E064DFD6DFA5E861DFD3DFA4B3CF
:10072000AF70A4BBA99A70DFE53011F0E0E005C01E
:100730003DDFA6E054DF82DFE1E02196089562D03C
:10074000A991B991EE27FF276D91662311F031969B
:10075000FBCF089557D0AA27BB27E991F9910590BF
:10076000002011F01196FBCFFD010895EAE0F0E0C2
:100770000895E4E0F0E00895E3E0F0E00895E2E0B9
:10078000F0E00895E1E0F0E00895EEE0F0E0089593
:1007900095DC4E2E5524EACFE2EEF0E0FA93EA9390
:1007A0000895FA93EA93089570D0AFD084E0D0DE34
:1007B0002896A2EEB0E076CFE615F7050895E41589
:1007C000F50508954F01E8CFECDF80E0C1DE249607
:1007D000A2EEB0E067DFD3DF3F010895E815F90529
:1007E0000895E093E000F093E10068DC4E2E55247C
:1007F000CCDFE5CFEDE4F0E0D4DFE091E000F09174
:10080000E100D2CFBA93AA930895AA81BB8108953B
:10081000149673D00895ED91FD913196FE93EE9369
:1008200008952A93AD85BE85EF85F88909950895C9
:10083000E889F98908953497E88BF98B0895AD8597
:10084000BE85EF85F88909950895F2DFF4CFA88970
:10085000B989DECFEE83FF83AE81BF810895EE8339
:10086000FF830895EA87FB870895DE011C9605D073
:1008700044D0089527DFA0E32ACF0024AF0DB01D98
:100880000895F195E195F04008956F2F660F660B7E
:10089000762F0895FA9FF02DEB9FF00DEA9FE02D43
:1008A000F10D08951CD0F6DF0EF4EBDF089500245F
:1008B000112490E1AA0FBB1F001C111C0E1A1F0A65
:1008C00018F40E0E1F1E01C0A1609A9599F7FD0144
:1008D000D001089504D0EBDF0EF4D3DF0895E8943F
:1008E000F7FF02C0CEDF6894B7FF06C0A095B095B1
:1008F000119600F8039400FA0895ED91FC91119778
:1009000008950590F491E02D08957A936A93FA93EF
:10091000EA9308955A934A933A932A931A930A931F
:1009200008955D814C813B812A8119810881089558
:00000001FF
