:060000000C9431000C9489
:1000060000000C9400000C9400000C9400000C946A
:1000160000000C9400000C9400000C9400000C945A
:1000260000000C9400000C9400000C9400000C944A
:1000360000000C9400000C9400000C9400000C943A
:1000460000000C9400000C9400000C9400000400C6
:10005600020001000600040054000000F894EE2798
:10006600ECBBF1E0FBBFEBBFE5BF8DE0A2E0BB2739
:10007600ED938A95E9F780E094E0A0E6ED93019789
:10008600E9F7EAE5F0E085919591009761F0A59191
:10009600B59105901590BF01F00105900D9201975D
:1000A600E1F7FB01F0CFEFE5EDBFE4E0EEBFC0E620
:1000B600D1E00C945E00EFEFEABBE7BBE4BBE1BB2B
:1000C600E0E0EBBBEFEFEABBE0E0E8BBEFEFE7BB5E
:1000D600E0E0E5BBEFEFE4BBE0E0E2BBEFEFE1BB66
:1000E600E0E0E3BFE2BFECBFEFBDEEBDEDBDECBDB2
:1000F600E7BDE6BDEBBDEABDE9BDE8BDE2BDE5BDD8
:10010600E4BDE3BDE9BFE5BFE4BFEAB9E0E8E8B9AD
:10011600E0E0E0BFE6B9EDB9E6BF8BBA48BA45BA4A
:1001260042BAA8ECB0E02AD06BBAA2E3B0E026D07F
:100136004BBAA4E1B0E022D088BAA8ECB0E01ED059
:1001460068BAA2E3B0E01AD048BAA4E1B0E016D08B
:1001560085BAA8ECB0E012D065BAA2E3B0E00ED042
:1001660045BAA4E1B0E00AD082BAA8ECB0E006D065
:1001760062BAA2E3B0E002D0D0CFFFCF109639F03A
:10018600A89588EB9BE00197F1F71197C9F70895B9
:00000001FF
