:060000000C9431000C9489
:1000060000000C9400000C9400000C9400000C946A
:1000160000000C9400000C9400000C9400000C945A
:1000260000000C9400000C9400000C9400000C944A
:1000360000000C9400000C9400000C9400000C943A
:1000460000000C9400000C9400000C9400000400C6
:10005600020001000600040054000000F894EE2798
:10006600ECBBF1E0FBBFEBBFE5BF8DE0A2E0BB2739
:10007600ED938A95E9F780E094E0A0E6ED93019789
:10008600E9F7EAE5F0E085919591009761F0A59191
:10009600B59105901590BF01F00105900D9201975D
:1000A600E1F7FB01F0CFEFE5EDBFE4E0EEBFC0E620
:1000B600D1E00C945E00E7E0EABBE0E0EBBBE7E0F2
:1000C600E7BBE0E0E8BBE7E0E4BBE0E0E5BBE7E098
:1000D600E1BBE0E0E2BBE3BFE2BFECBFEFBDEEBDDC
:1000E600EDBDECBDE7BDE6BDEBBDEABDE9BDE8BDD6
:1000F600E2BDE5BDE4BDE3BDE9BFE5BFE4BFEAB9E6
:10010600E0E8E8B9E0E0E0BFE6B9EDB9E6BF8BBAF2
:1001160048BA45BA42BA16D06BBA18D04BBA1AD0FA
:1001260088BA10D068BA12D048BA14D085BA0AD0A4
:1001360065BA0CD045BA0ED082BA04D062BA06D0DF
:10014600E6CFFFCFA8ECB0E00C94B100A2E3B0E09C
:100156000C94B100A4E1B0E00C94B100109639F013
:1001660088EB9BE00197F1F7A8951197C9F70895D9
:00000001FF
