:0800000014C0FECFFDCFFCCFC0
:10000800FBCFFACFF9CFF8CFF7CFF6CFF5CFF4CFB4
:10001800F3CFF2CFF1CFF0CFEFCFEECFEDCFECCFE4
:10002800EBCFF894EE27ECBBF1E0FBBFEBBFE5BFED
:10003800F8E1F1BDE1BD8DE0A2E0BB27ED938A9523
:10004800E9F780E092E0A0E6ED930197E9F7EFE5A4
:10005800EDBFE2E0EEBFC0EED0E000C0E1E0EBBBF8
:10006800E0E0EABBE8BBE1E3E7BBE0E0E5BBE4BB1B
:10007800E2BBE1BBE3BFE2BFECBFEFBDEEBDEDBD50
:10008800ECBDE7BDE6BDEBBDEABDE9BDE8BDE2BD3F
:10009800E5BDE4BDE3BDE5BFE4BFE9BFEAB9E0E81B
:1000A800E8B9E0E0E0BFE6B9EDB9E6BFC89909C034
:1000B800C09A09D0C098C49A06D0C498C59A03D0EB
:1000C800C598F4CFFFCFA4E1B0E000C0109639F096
:1000D80080EA9FE00197F1F7A8951197C9F708956D
:00000001FF
