:040000000C942A0032
:100004000C9400000C9400000C9400000C9400006C
:100014000C9400000C9400000C9400000C9400005C
:100024000C9400000C9400000C9400000C9400004C
:100034000C9400000C9400000C9400000C9400003C
:100044000C9400000C9400000C9400000C9400002C
:10005400F894EE27ECBBF1E0FBBFEBBFE5BF8DE00E
:10006400A2E0BB27ED938A95E9F780E094E0A0E64F
:10007400ED930197E9F7EFE5EDBFE4E0EEBFC0E6ED
:10008400D1E00C944500EFEFEABBE0E0EBBBE1E824
:1000940010D0E2E40ED0E4E20CD0E8E20AD0E0E1D1
:1000A40008D0E8E206D0E8E404D0E4E802D0EFCFD8
:1000B400FFCFEBBBA4E6B0E00C946000109639F0DF
:1000C4008AEF90E00197F1F7A8951197C9F7089581
:00000001FF
